{
  "_format": "hh-sol-artifact-1",
  "contractName": "Counter",
  "sourceName": "contracts/Counter.sol",
  "abi": [
    {
      "inputs": [],
      "name": "getScore",
      "outputs": [
        {
          "internalType": "uint256",
          "name": "",
          "type": "uint256"
        }
      ],
      "stateMutability": "view",
      "type": "function"
    },
    {
      "inputs": [
        {
          "internalType": "address",
          "name": "",
          "type": "address"
        }
      ],
      "name": "players",
      "outputs": [
        {
          "internalType": "uint256",
          "name": "",
          "type": "uint256"
        }
      ],
      "stateMutability": "view",
      "type": "function"
    },
    {
      "inputs": [
        {
          "internalType": "uint256",
          "name": "score",
          "type": "uint256"
        }
      ],
      "name": "setScore",
      "outputs": [],
      "stateMutability": "nonpayable",
      "type": "function"
    }
  ],
  "bytecode": "0x608060405234801561001057600080fd5b5061029a806100206000396000f3fe608060405234801561001057600080fd5b50600436106100415760003560e01c8063422beeba14610046578063afd8206714610062578063e2eb41ff14610080575b600080fd5b610060600480360381019061005b91906101a7565b6100b0565b005b61006a6100f6565b60405161007791906101df565b60405180910390f35b61009a6004803603810190610095919061017e565b61013c565b6040516100a791906101df565b60405180910390f35b806000803373ffffffffffffffffffffffffffffffffffffffff1673ffffffffffffffffffffffffffffffffffffffff1681526020019081526020016000208190555050565b60008060003373ffffffffffffffffffffffffffffffffffffffff1673ffffffffffffffffffffffffffffffffffffffff16815260200190815260200160002054905090565b60006020528060005260406000206000915090505481565b60008135905061016381610236565b92915050565b6000813590506101788161024d565b92915050565b60006020828403121561019057600080fd5b600061019e84828501610154565b91505092915050565b6000602082840312156101b957600080fd5b60006101c784828501610169565b91505092915050565b6101d98161022c565b82525050565b60006020820190506101f460008301846101d0565b92915050565b60006102058261020c565b9050919050565b600073ffffffffffffffffffffffffffffffffffffffff82169050919050565b6000819050919050565b61023f816101fa565b811461024a57600080fd5b50565b6102568161022c565b811461026157600080fd5b5056fea26469706673582212202eeee3bb178ef9e88ab0344d354b6b6f0a0ac077b35b3c954a56c1375f7af1a064736f6c63430008040033",
  "linkReferences": {},
  "deployedLinkReferences": {}
}